:020000040800F2
:10000000D0040020D5000008E111000865100008A8
:1000100000000000000000000000000000000000E0
:100020000000000000000000000000002B1200088B
:100030000000000000000000291200082D12000836
:10004000E7000008E7000008E7000008E7000008F4
:10005000E7000008E7000008E7000008E7000008E4
:10006000E7000008E7000008E7000008E7000008D4
:10007000E7000008E700000800000000E7000008B3
:1000800000000000E7000008000000000000000081
:10009000E700000800000000E7000008E700000893
:1000A000E7000008E7000008E7000008E700000894
:1000B000E7000008E7000008E7000008E700000884
:1000C0000348854600F08EF800480047991800085C
:1000D000D00400200448804704480047FEE7FEE7BC
:1000E000FEE7FEE7FEE7FEE7A9120008C1000008F0
:1000F00030B50B46014600202022012409E00D46C0
:10010000D5409D4205D31D469540491B2546954047
:1001100040191546521E002DF1DC30BDF0B51FB45C
:100120000646002082B005464024019100901BE065
:10013000019922460F46304600F042F8049A059B8A
:10014000801A994110D310461946224600F028F82B
:10015000361A8F410197224601200021009F00F0AE
:100160001FF838184D4100902046641E0028DFDC3F
:10017000019B00982946324607B0F0BDD2B201E09B
:100180000270401C491EFBD270470022F6E710B5F2
:1001900013460A4604461946FFF7F0FF204610BDF5
:1001A00010B5202A04DB0146203A9140002010BD02
:1001B000914020239C1A0346E3401943904010BD10
:1001C00010B5202A04DB0846203AD040002110BD9B
:1001D0000B46D340D0402024A21A91400843194630
:1001E00010BD0000064C0125064E05E0E36807CC73
:1001F0002B430C3C98471034B442F7D3FFF764FF0D
:1002000044190008641900087047000070B50446DE
:1002100000F0D0F80546601C02D00448007824188D
:1002200000F0C8F8401BA042FAD370BD04000020C3
:10023000FCB500230124A2E027462A469F403A400D
:100240006FD04D68012D05D0022D03D0112D01D0A6
:10025000122D16D185680326AC465D00AE46AE4031
:100260006546B543AC46CE687546AE4065462E43FE
:10027000866046680D79BE43ED06ED0F9D4035431F
:100280004560C6685F000325BD40AE46AE433546B7
:100290008E68BE402E43C6604E68022E01D0122EDC
:1002A00014D1DE08B60036180196366A5D07B446EA
:1002B000EE0E0F25B54000966646AE43B4460D6976
:1002C000009EB54066462E43019D2E620668754627
:1002D000AE430D79AD07AD0FBD40354305604D68A8
:1002E000ED004BD5294D6E6B26436E639E08284D5D
:1002F000B6007519AC46AD689E07360F0F27B7409C
:10030000BD4305273F07B84201D1002715E0214F23
:10031000B84201D1012710E01F4FB84202D1022795
:100320000BE02BE01D4FB84201D1032705E01C4F25
:10033000B84201D1052700E00627B7402F436546A4
:10034000AF60184D2E684F689643FF0300D51643E3
:100350002E606E684F689643BF0300D516436E60EB
:10036000AE684F689643FF0200D51643AE60EE6854
:100370004F689643BF0200D51643EE605B1C0A68C7
:100380001546DA4000D057E7FCBD000000100240DF
:10039000000001400004005000080050000C005014
:1003A000001C005000040140002A01D08161704708
:1003B0008162704701488068704700000400002097
:1003C0000248816802788918816070470400002023
:1003D00010B50848002401684022114301602046FE
:1003E00000F00AF8002801D0012401E000F026F80E
:1003F000204610BD0020024070B504460D4D7D2002
:100400002978C000FFF774FE01460B480068FFF72B
:100410006FFE00F045FC002809D1042C07D2002211
:100420002146401E00F016F800206C6070BD0120CF
:1004300070BD000004000020100000200448416B43
:10044000012211434163816B0204114381637047B0
:100450000010024010B500F0C5FE10BDF8B504460E
:100460000068614D810601D400057DD55E4E0027F0
:10047000403EB06BC00004D4B06B31040843B0639D
:1004800001275A480168C90511D401688215114332
:100490000160FFF78FFF009005E0FFF78BFF0099E9
:1004A000401A642844D851480068C005F5D5316821
:1004B00003200005626801401040884205D10323F3
:1004C000A0681B051840884208D09003800F0328BD
:1004D00004D13068800301D50120F8BD28690321CB
:1004E0000904084029D00A40824202D022789206AC
:1004F00006D4A2680A4082421FD0208800051CD57D
:1005000028692A6988430121C9040A432A612A69A2
:100510008A432A612861C0050FD5FFF74BFF009081
:1005200008E0FFF747FF0099411A3148814201D99D
:100530000320F8BD28698005F3D561688803800F22
:10054000032805D132680005824301400A43326026
:100550002869032261681204114008432861002FB2
:1005600006D0B16B012000E002E000078143B163D7
:100570002078C00705D0E868E1688008800008435B
:10058000E8602078800705D5E8680C218843216958
:100590000843E8602078400706D5E868032189020F
:1005A000884361690843E8602078000706D5E86859
:1005B000032109038843A1690843E86020784006C5
:1005C00006D5E868012189068843216A0843E86066
:1005D0002078000606D5E868032189048843E1698C
:1005E0000843E8600020F8BD401002400070004061
:1005F00088130000F8B50E4605007DD0534800680A
:10060000C007C00FB0420AD25048016849084900EB
:10061000314301600068C007C00FB04271D1287833
:100620004B4C800705D5E068F0218843A968084352
:10063000E0602878C00752D06868022817D00328E5
:1006400018D02168012818D08905002959DAE168F5
:10065000890889000143E160FFF7ACFE696807463D
:10066000022912D003291CD0012926D033E02168A9
:100670008903EAE721688901E7E74907E5E7FFF72A
:1006800099FEC11B3348814223D8E0680007800FE0
:100690000228F4D123E0FFF78DFEC11B2D488142D3
:1006A00017D8E0680007800F0328F4D117E0FFF7A0
:1006B00081FEC11B274881420BD8E0680007800FEC
:1006C0000128F4D10BE0FFF775FEC11B21488142E0
:1006D00001D90320F8BDE0680007800FF3D11B4863
:1006E0000168C907C90FB1420DD90168490849001D
:1006F00031430160006800E003E0C007C00FB04272
:1007000001D00120F8BD2878400706D5E068072110
:1007100009028843E9680843E0602878000707D5A4
:10072000E0680721C90288432969C9000843E060DD
:1007300000F036F8E168084A0906090F515CC84024
:10074000064908600020FFF757FEF8BD0020024070
:10075000001002408813000020190008100000203B
:10076000044805490068C968044A4905490F515CB5
:10077000C8407047100000200010024039190008DE
:10078000044805490068C968044A8904490F515C56
:10079000C8407047100000200010024039190008BE
:1007A00010B5184AD1680C20084004280BD008283E
:1007B00010D00C2810D050680004410F0120C00355
:1007C000491C884010BD1068C00601D50E4810BDF8
:1007D0000E4810BD0E4810BD88020E4B000F185C6D
:1007E0000902D368890F491CDB0301D5084A05E0DB
:1007F0001268D20601D5044A00E0044A5043FFF7CC
:1008000077FC10BD0010024000093D000024F400F8
:1008100000127A0030190008FEB505007ED0FE4CAB
:10082000E7680C20E66807400120000406402878AD
:10083000C00747D0082F05D00C2F0AD10120000493
:10084000864206D1206880033CD568680028E5D040
:1008500038E0012069680004814203D12168014326
:10086000216011E0052301221B04920499422168B2
:1008700002D111432160F1E78143216021680140E9
:100880000091206890432060686800280DD0FFF731
:1008900091FD009005E0FFF78DFD0099401A642856
:1008A0007AD820688003F6D50CE0FFF783FD00902E
:1008B00005E0FFF77FFD0099401A6428F0D8206812
:1008C0008003F6D42878800755D50923E868042FDB
:1008D0000DD00C2F01D1002E09D000283BD021686B
:1008E000994301432160FFF765FD064627E0216833
:1008F000490701D5002891D061681F221202914357
:100900002A69120211436160216899430143216001
:10091000FFF746FFE16809060A0F00E0BBE1BF49A7
:10092000895CC840BE4908600020FFF765FD0028CB
:1009300072D120E0FFF73EFD801B0228B0D820686E
:100940004007F7D560681F21090288432969090219
:10095000084360600FE02068400840002060FFF717
:1009600029FD064604E0FFF725FD801B022897D8E5
:1009700020684007F7D42878C0065FD5002F0CD038
:10098000E869002849D02068FF2101310843206030
:10099000FFF710FD06462DE0E4E02068800502D553
:1009A000E8690028A7D06068072149038843696A7D
:1009B000084360606068298C0002000A0906084349
:1009C0006060686A410B0120C003491C8840E168EF
:1009D00009060A0F9149895CC840914908600020C6
:1009E000FFF70AFD002817D128E0FFF7E3FC801B82
:1009F0000228A3D820688005F7D56068072149033D
:100A00008843696A084360606068298C0002000AB4
:100A100009060843606011E023E12168FF200130EE
:100A200081432160FFF7C6FC064604E0FFF7C2FCE5
:100A3000801B02289BD820688005F7D42878794E3F
:100A4000000724D568690028306910D001210843C7
:100A50003061FFF7AFFC009005E0FFF7ABFC0099B9
:100A6000401A02287ED830698007F6D50FE040088A
:100A700040003061FFF79EFC009005E0FFF79AFC14
:100A80000099401A02286DD830698007F6D428787A
:100A9000400764D500200290A06BC00006D4A06B74
:100AA000012109070843A063012002905E48016804
:100AB000C90511D40168821511430160FFF77AFC62
:100AC000009005E0FFF776FC0099401A642849D8A9
:100AD00055480068C005F5D5FF20AA68013082425C
:100AE00003D131690143316111E001218902002AFA
:100AF00007D005231B029A4203D132690A433261AF
:100B0000EFE7326982433261306988433061A86817
:100B100000280ED0FFF74EFC009006E0FFF74AFCDD
:100B20000099411A414881421CD830698005F5D5A9
:100B30000DE0FFF73FFC009006E0FFF73BFC00995B
:100B4000411A3A4881420DD830698005F5D402989F
:100B5000002804D0A16B012000078143A1632878FD
:100B6000800600E07CE02ED53148A96943140029B5
:100B700016D0A26801210A43A260626B0A43626335
:100B8000016A19430162FFF715FC064604E0FFF70E
:100B900011FC801B022863D8A0688007F7D512E0FB
:100BA000A16849084900A160016A99430162FFF701
:100BB00001FC064604E0FFF7FDFB801B02284FD82E
:100BC000A0688007F7D4A86A002866D00C2F4DD003
:100BD000012636060228206805D0B0432060FFF7C2
:100BE000E9FB05463EE0B0432060FFF7E3FB074624
:100BF00004E0FFF7DFFBC01B022831D8206880012A
:100C0000F7D4296BE86AE2680843696BFD231B048B
:100C10009A43114308430DE00010024020190008D8
:100C200010000020401002400070004088130000B7
:100C300000000140E060206830432060FFF7BAFB0D
:100C4000054604E0FFF7B6FB401B022808D82068E1
:100C50008001F7D521E0FFF7ADFB401B022801D949
:100C60000320FEBD20688001F5D416E00128F8D0ED
:100C7000E06801210904EA6A014091420BD10F2189
:100C800089042A6B0140914205D10321890508405E
:100C9000696B884201D00120FEBD0020FEBD00002E
:100CA000094910B5401E884201D9012010BD074CEA
:100CB00060610321081F00F095FA0020A061072061
:100CC0002061002010BD0000FFFFFF0000E000E0F9
:100CD000F0B502462032137E012B15D0012717767E
:100CE0000223537605686C68AB687026B4430E68BF
:100CF000496826438024A34319436E6000688160DD
:100D0000577600201076F0BD0220F0BD70B50400CB
:100D100005D025462035687E002802D006E0012057
:100D200070BD00202876204600F00AF80220687680
:100D3000211D206800F0E2FA01206876002070BDD5
:100D4000006801218907884204D10348816B012290
:100D5000114381637047000000100240F8B505465A
:100D600004462035287E012817D001262E76022041
:100D70006876226890687727FF23B8431B02984360
:100D800090600A68502A31D00EDC202A4BD006DC55
:100D9000002A48D0102A3AD145E00220F8BD302A76
:100DA00041D0402A33D136E0602A27D0702A12D0B1
:100DB00001200003121A2AD0824228D1CB684A6847
:100DC0008968206800F0D3FA2068816801229203C4
:100DD000114381601BE0CB684A688968206800F095
:100DE000C6FA216888683843886010E0CA68496894
:100DF000206800F036FB5021206806E0CA68496888
:100E0000206800F03FFB6021206800F0BBFA6E769E
:100E100000202876F8BDCA684968206800F021FBE8
:100E200040212068F1E711462068EEE710B586B052
:100E3000044614216846FFF7A8F9012120688907B4
:100E4000884213D10A48C26A01210A43C262C06AB9
:100E5000009108400590002002210290039001912A
:100E60000491052069460007FFF7E2F906B010BDBE
:100E700000100240F8B5064604462036307E0D4686
:100E800001280DD001203076022070760427002A38
:100E900008D0042A16D0082A2AD00C2A4DD137E0CF
:100EA0000220F8BD206800F075FA206881690822E8
:100EB0001143816120688169B9438161206881693A
:100EC000EA6812E0206800F07DFA2068826901215A
:100ED000C9020A438261206881690122920291431A
:100EE000816120688169EA6812021143816124E00E
:100EF000206800F080FA2068C26908210A43C261B4
:100F00002068C169B943C1612068C169EA6812E01B
:100F1000206800F08BFA2068C1690122D2021143D7
:100F2000C1612068C269012189028A43C2612068C7
:100F3000C169EA6812021143C16101207076002084
:100F40003076F8BD70B5040005D025462035687EA2
:100F5000002802D006E0012070BD0020287620463F
:100F600000F00AF802206876211D206800F0C6F91A
:100F700001206876002070BD704710B504460068F7
:100F8000012200F0E7F9206881684907490F062926
:100F900003D00168012211430160002010BD10B58B
:100FA000040003D0606F002802D007E0012010BDCC
:100FB000002170200155204600F026F824206067AB
:100FC00020680168490849000160204600F002FBE2
:100FD0000128ECD0606A002802D0204600F065FAB3
:100FE000206841680922D2029143416020688168EB
:100FF0002A22914381602068016801221143016027
:10100000204600F0B7FA10BD10B586B00446142192
:101010006846FFF7BAF81149206888421BD110488A
:10102000816B0122520411438163C16A0122114381
:10103000C162C06A6946104005900C2000900220F1
:1010400001900020029003200390042004900520CA
:101050000007FFF7EDF806B010BD000000440040A7
:1010600000100240FEE70000F0B587B0142168468A
:10107000FFF78BF82048C26A04210A43C262C26AA1
:101080000A400592C26A80210A43C262C26A0A40CB
:101090000592C16A01252943C162C06A052728401B
:1010A0003F070590002220213846FFF77DF90726EB
:1010B000B602002231461148FFF776F96803009026
:1010C0000F4800240190694602940C48FFF7B0F8DD
:1010D0002020009002946946019503943846FFF75A
:1010E000A7F8029469460548009601950394FFF716
:1010F0009FF807B0F0BD000000100240000800504B
:101100000000211010B58AB00024049405940694C0
:1011100007940894012123480994009401940294AF
:101120008907039401601D2184604160632104618B
:10113000C16080214161FFF7E9FD002801D0FFF780
:1011400063F801200003049004A91648FFF706FE87
:10115000002801D0FFF758F81248FFF7F3FE0028E7
:1011600001D0FFF751F8089408A90E480994FFF739
:10117000AFFD002801D0FFF747F860200090132052
:10118000019002940022694603940648FFF772FE1C
:10119000002801D0FFF738F80248FFF747FE0AB0F1
:1011A00010BD00001400002010B50C480A49016071
:1011B000E1214902416000218160C16001618161DA
:1011C000C1610C22016242614162FFF7E8FE002822
:1011D00001D0FFF719F810BD004400405000002076
:1011E000704700008307FF22DB0E9A408907090E33
:1011F000994000280BDA0007000F083883080848D8
:101200009B001818C36993430B43C361704783085D
:1012100004489B001B1818689043084318607047E7
:1012200000ED00E000E400E07047704710B5FFF704
:10123000C7F810BD30B59DB038216846FEF7A5FF50
:10124000142117A8FEF7A1FF24210EA8FEF79DFF89
:10125000144801680322D2029143C2148918016024
:10126000092003901020049003200225002480050B
:1012700000950D900B940A950C946846FFF7CCFAF4
:101280000F2017900320189019941A9400211B9492
:1012900017A8FFF7AFF90EA80E951294FFF7DEF826
:1012A0001DB030BD00700040104801688215114328
:1012B0000160C1680E4A1140C16001680D4A1140C9
:1012C0000160816849084900816001680122920437
:1012D00091430160C168FD2212049143C160002165
:1012E00001610549C003886070470000001002409A
:1012F0000C40FF88F6FFF6FE00ED00E070B50268D6
:1013000001239B07114C124D984203D0A04201D0FB
:10131000A84203D17026B2434E683243984203D0AC
:10132000A04201D0A84204D103231B029A43CB68F8
:101330001A4380239A430B691A4302608A68C26287
:10134000096881620121416170BD0000000801400F
:101350000014014010B5CB06DB0E0121046A994050
:101360008C430462016A9A401143016210BD30B59A
:101370008468FF252D021B021343AC430B43234318
:10138000836030BD826870239A430A4307210A4371
:101390008260704730B5026A520852000262026AE7
:1013A000456883697024A3439C080B68A400234309
:1013B0000224A2438C6845601443836149684163F9
:1013C000046230BD30B5026A10239A430262036A98
:1013D0004568826973242402A2430C6824021443E2
:1013E000202293438A68456012011A438461496848
:1013F0008163026230BD30B5026AFF2301339A4334
:101400000262026A4568C3697024A3439C080B68A2
:10141000A400234301246402A2438C684560240293
:101420001443C3614968C163046230BD30B5026AC8
:1014300001231B039A430262036A4568C26973244D
:101440002402A2430C682402144301225203934352
:101450008A68456012031A43C461496801640262E4
:1014600030BD30B5036A046A6408640004628469AC
:10147000F025AC43120122430A24A3430B438261AB
:10148000036230BD30B5036A1024A343036284694C
:10149000036A0F252D031203AC432243A024A34368
:1014A000090119438261016230BD10B5818CC90701
:1014B00007D001684A6801235B049A43836A1A4390
:1014C0004A60818C890707D501684A6801231B049B
:1014D0009A43C36A1A434A60818C490707D5016859
:1014E0004A6801239B049A43036B1A434A60818C28
:1014F000090707D501684A680123DB039A43436B58
:101500001A434A60818CC90607D502689168012395
:101510001B039943836B19439160818C890607D51E
:1015200001688A6801235B039A43C36B1A438A608C
:10153000818C490612D503685A6801210905046C9B
:101540008A4322435A60026C8A4207D1026851687A
:1015500003235B059943436C19435160818C090651
:1015600007D501684A680123DB04806C9A43024373
:101570004A6010BDF8B500260446C667FEF71AFF9C
:10158000054620680068124F000709D501212B4647
:10159000002249052046009700F030F900280DD1BF
:1015A0002068006840070BD501212B4600228905E1
:1015B0002046009700F022F9002801D00320F8BD52
:1015C00020206067A067603426740020F8BD00000A
:1015D000FFFFFF01F8B504462669A268E7693243B8
:1015E0006669102000253E432368324378491E680F
:1015F000784F3E4016431E6023685A680326360320
:10160000B243E66832435A602368A2698B4201D034
:10161000266A32439E680B273F02BE4316439E60F4
:101620006D4E23686D4AB3420CD1D2689207920F77
:1016300006D0012A38D0022A34D0032A20D11EE055
:1016400001201DE0664EB3420AD1D2680C2632401A
:1016500026D0042A28D0082A24D00C2A10D10EE043
:101660008B420DD1D66803229202164018D0012277
:101670009202B61A18D0B61A14D0964200D1082099
:10168000564A0126403A574FF6038B4236D100287E
:101690000CD002280DD0042812D008281FD11CE03D
:1016A0000020EDE70220EBE70420E9E7FFF758F818
:1016B00008E01068C00601D5384605E04A4803E056
:1016C000FFF76EF8002873D062685100511881420C
:1016D00005D81103814202D303E03046F4E7012527
:1016E00066E0010E06025008002330185941FEF74B
:1016F00015FD03210902411A3C4A55E0E169B14256
:1017000032D1030000F0ABF809070A0D06250606E2
:10171000062B0600E3E7FFF723F81CE0FFF730F89D
:1017200019E010686168C00602D54808304A01E037
:10173000304A48088018FEF7DBFC80B201462E4A8A
:1017400010399142CBD8511C01400007400F08438B
:101750002CE0FFF725F8616840004A08EAE7616875
:10176000012248081204E5E7030000F078F80907B1
:101770000A0D06260606062C0600B0E7FEF7F0FF67
:101780001DE0FEF7FDFF1AE010686168C00602D593
:101790004808C01902E014484A081018FEF7A8FCCF
:1017A00080B20146144A1039914298D82168C86025
:1017B0000020206660662846F8BDFEF7F1FF6168EC
:1017C0004A088018EAE7616848088019E6E70000DF
:1017D00000480040F369FFEF00380140401002402C
:1017E0000044004000093D000024F400FFFC0F000D
:1017F00000127A000048E801EFFF0000FFB581B059
:1018000017460E4604460A9D09E0681C07D0FEF7FD
:10181000D1FD0499401AA8420CD8002D0AD02068A6
:10182000C1693046884318D00020B842EDD000206E
:1018300005B0F0BD20680168FF22A132914301602C
:101840002068816849084900816020206067A0679E
:101850000020603420740320EAE70120E5E730B47B
:101860007446641E2578641CAB4200D21D46635D3D
:101870005B00E31830BC184702E008C8121F08C11B
:10188000002AFAD170477047002001E001C1121F01
:10189000002AFBD170470000FEF79AFDFFF7CAFC53
:1018A000FFF7E2FBFFF72EFCFFF77EFC194C01214E
:1018B000002289022046FEF777FD0121002209035C
:1018C0002046FEF771FD01210022C9022046FEF7E5
:1018D0006BFD00211048FFF750FB0026E40466630F
:1018E0000E4D01272F703220FEF790FC28788007DC
:1018F000800F0128606B05D0401E6063606B00287C
:1019000002D002E0401CF8E72F70606B6328EAD930
:101910002E70E8E7000800501400002000000020AE
:10192000000000000000000001020304060708098F
:10193000030406080C101820300000000001020308
:1019400004000000641900080000002014000000DA
:10195000781800087819000814000020BC04000062
:1019600088180008000000000100000004000000CA
:0819700000000000000020004F
:04000005080000C12E
:00000001FF
